{
  "contractName": "ENFToken",
  "abi": [
    {
      "constant": true,
      "inputs": [],
      "name": "name",
      "outputs": [
        {
          "name": "",
          "type": "string"
        }
      ],
      "payable": false,
      "stateMutability": "view",
      "type": "function"
    },
    {
      "constant": true,
      "inputs": [],
      "name": "totalSupply",
      "outputs": [
        {
          "name": "",
          "type": "uint256"
        }
      ],
      "payable": false,
      "stateMutability": "view",
      "type": "function"
    },
    {
      "constant": true,
      "inputs": [],
      "name": "INITIAL_SUPPLY",
      "outputs": [
        {
          "name": "",
          "type": "uint256"
        }
      ],
      "payable": false,
      "stateMutability": "view",
      "type": "function"
    },
    {
      "constant": true,
      "inputs": [],
      "name": "decimals",
      "outputs": [
        {
          "name": "",
          "type": "uint8"
        }
      ],
      "payable": false,
      "stateMutability": "view",
      "type": "function"
    },
    {
      "constant": true,
      "inputs": [
        {
          "name": "_owner",
          "type": "address"
        }
      ],
      "name": "balanceOf",
      "outputs": [
        {
          "name": "",
          "type": "uint256"
        }
      ],
      "payable": false,
      "stateMutability": "view",
      "type": "function"
    },
    {
      "constant": true,
      "inputs": [],
      "name": "symbol",
      "outputs": [
        {
          "name": "",
          "type": "string"
        }
      ],
      "payable": false,
      "stateMutability": "view",
      "type": "function"
    },
    {
      "constant": false,
      "inputs": [
        {
          "name": "_to",
          "type": "address"
        },
        {
          "name": "_value",
          "type": "uint256"
        }
      ],
      "name": "transfer",
      "outputs": [
        {
          "name": "",
          "type": "bool"
        }
      ],
      "payable": false,
      "stateMutability": "nonpayable",
      "type": "function"
    },
    {
      "inputs": [],
      "payable": false,
      "stateMutability": "nonpayable",
      "type": "constructor"
    },
    {
      "anonymous": false,
      "inputs": [
        {
          "indexed": true,
          "name": "from",
          "type": "address"
        },
        {
          "indexed": true,
          "name": "to",
          "type": "address"
        },
        {
          "indexed": false,
          "name": "value",
          "type": "uint256"
        }
      ],
      "name": "Transfer",
      "type": "event"
    },
    {
      "constant": false,
      "inputs": [],
      "name": "getTotalSupply",
      "outputs": [
        {
          "name": "",
          "type": "uint256"
        }
      ],
      "payable": false,
      "stateMutability": "nonpayable",
      "type": "function"
    }
  ],
  "bytecode": "0x60c0604052600860808190527f454e46546f6b656e00000000000000000000000000000000000000000000000060a090815261003e91600291906100c1565b506040805180820190915260038082527f454e460000000000000000000000000000000000000000000000000000000000602090920191825261008191816100c1565b506004805460ff19166008179055631dcd65006005553480156100a357600080fd5b5060055460018190553360009081526020819052604090205561015c565b828054600181600116156101000203166002900490600052602060002090601f016020900481019282601f1061010257805160ff191683800117855561012f565b8280016001018555821561012f579182015b8281111561012f578251825591602001919060010190610114565b5061013b92915061013f565b5090565b61015991905b8082111561013b5760008155600101610145565b90565b6104858061016b6000396000f30060806040526004361061008d5763ffffffff7c010000000000000000000000000000000000000000000000000000000060003504166306fdde03811461009257806318160ddd1461011c5780632ff2e9dc14610143578063313ce5671461015857806370a082311461018357806395d89b41146101b1578063a9059cbb146101c6578063c4e41b221461011c575b600080fd5b34801561009e57600080fd5b506100a761020b565b6040805160208082528351818301528351919283929083019185019080838360005b838110156100e15781810151838201526020016100c9565b50505050905090810190601f16801561010e5780820380516001836020036101000a031916815260200191505b509250505060405180910390f35b34801561012857600080fd5b50610131610296565b60408051918252519081900360200190f35b34801561014f57600080fd5b5061013161029c565b34801561016457600080fd5b5061016d6102a2565b6040805160ff9092168252519081900360200190f35b34801561018f57600080fd5b5061013173ffffffffffffffffffffffffffffffffffffffff600435166102ab565b3480156101bd57600080fd5b506100a76102d3565b3480156101d257600080fd5b506101f773ffffffffffffffffffffffffffffffffffffffff6004351660243561032e565b604080519115158252519081900360200190f35b6002805460408051602060018416156101000260001901909316849004601f8101849004840282018401909252818152929183018282801561028e5780601f106102635761010080835404028352916020019161028e565b820191906000526020600020905b81548152906001019060200180831161027157829003601f168201915b505050505081565b60015490565b60055481565b60045460ff1681565b73ffffffffffffffffffffffffffffffffffffffff1660009081526020819052604090205490565b6003805460408051602060026001851615610100026000190190941693909304601f8101849004840282018401909252818152929183018282801561028e5780601f106102635761010080835404028352916020019161028e565b3360009081526020819052604081205482111561034a57600080fd5b73ffffffffffffffffffffffffffffffffffffffff8316151561036c57600080fd5b3360009081526020819052604090205461038c908363ffffffff61043416565b336000908152602081905260408082209290925573ffffffffffffffffffffffffffffffffffffffff8516815220546103cb908363ffffffff61044616565b73ffffffffffffffffffffffffffffffffffffffff8416600081815260208181526040918290209390935580518581529051919233927fddf252ad1be2c89b69c2b068fc378daa952ba7f163c4a11628f55a4df523b3ef9281900390910190a350600192915050565b60008282111561044057fe5b50900390565b8181018281101561045357fe5b929150505600a165627a7a72305820073791d7c6ea0c62aca207a142ccd1f86d1c0e07310402b5f90b525c0c103f620029",
  "source": "pragma solidity ^0.4.24;\r\n\r\nimport \"openzeppelin-solidity/contracts/token/ERC20/BasicToken.sol\";\r\n\r\ncontract ENFToken is BasicToken {\r\n    string public name =\"ENFToken\";\r\n    string public symbol=\"ENF\";\r\n    uint8 public decimals=8;\r\n    uint public INITIAL_SUPPLY=500000000;\r\n    \r\n\r\n\r\n    constructor() public {\r\n        totalSupply_ = INITIAL_SUPPLY;\r\n        balances[msg.sender] = INITIAL_SUPPLY;\r\n        \r\n    }\r\n    function getTotalSupply() public returns(uint){\r\n        return totalSupply_;\r\n    }\r\n   \r\n}\r\n",
  "sourcePath": "C:\\dev\\E-Fluencer\\ENFToken\\contracts\\ENFToken.sol",
  "compiler": {
    "name": "solc",
    "version": "0.4.24+commit.e67f0147.Emscripten.clang"
  },
  "schemaVersion": "2.0.1",
  "updatedAt": "2018-08-09T15:11:21.507Z"
}