{
  "contractName": "Transaction",
  "abi": [
    {
      "constant": true,
      "inputs": [],
      "name": "time",
      "outputs": [
        {
          "name": "",
          "type": "uint256"
        }
      ],
      "payable": false,
      "stateMutability": "view",
      "type": "function"
    },
    {
      "constant": true,
      "inputs": [],
      "name": "paidPerson",
      "outputs": [
        {
          "name": "",
          "type": "address"
        }
      ],
      "payable": false,
      "stateMutability": "view",
      "type": "function"
    },
    {
      "constant": true,
      "inputs": [],
      "name": "amount",
      "outputs": [
        {
          "name": "",
          "type": "uint256"
        }
      ],
      "payable": false,
      "stateMutability": "view",
      "type": "function"
    },
    {
      "inputs": [
        {
          "name": "_enf",
          "type": "address"
        }
      ],
      "payable": false,
      "stateMutability": "nonpayable",
      "type": "constructor"
    },
    {
      "payable": true,
      "stateMutability": "payable",
      "type": "fallback"
    },
    {
      "constant": false,
      "inputs": [
        {
          "name": "_amount",
          "type": "uint256"
        },
        {
          "name": "_to",
          "type": "address"
        },
        {
          "name": "_timeInSeconds",
          "type": "uint256"
        }
      ],
      "name": "startExchange",
      "outputs": [],
      "payable": true,
      "stateMutability": "payable",
      "type": "function"
    },
    {
      "constant": false,
      "inputs": [],
      "name": "transferBy",
      "outputs": [],
      "payable": true,
      "stateMutability": "payable",
      "type": "function"
    },
    {
      "constant": true,
      "inputs": [],
      "name": "getAmount",
      "outputs": [
        {
          "name": "",
          "type": "uint256"
        }
      ],
      "payable": false,
      "stateMutability": "view",
      "type": "function"
    },
    {
      "constant": true,
      "inputs": [],
      "name": "getAddress",
      "outputs": [
        {
          "name": "",
          "type": "address"
        }
      ],
      "payable": false,
      "stateMutability": "view",
      "type": "function"
    },
    {
      "constant": true,
      "inputs": [],
      "name": "getTime",
      "outputs": [
        {
          "name": "",
          "type": "uint256"
        }
      ],
      "payable": false,
      "stateMutability": "view",
      "type": "function"
    }
  ],
  "bytecode": "0x608060405234801561001057600080fd5b50604051602080610359833981016040525160008054600160a060020a03928316600160a060020a0319918216179182905560048054909116919092161790556102fa8061005f6000396000f30060806040526004361061008d5763ffffffff7c01000000000000000000000000000000000000000000000000000000006000350416630be6d28f811461008f57806316ada5471461009757806334ffed26146100be57806338cc4831146100e55780633945c63614610123578063557ed1ba14610138578063aa8c217c1461014d578063d321fe2914610162575b005b61008d610177565b3480156100a357600080fd5b506100ac610237565b60408051918252519081900360200190f35b61008d60043573ffffffffffffffffffffffffffffffffffffffff6024351660443561023d565b3480156100f157600080fd5b506100fa610284565b6040805173ffffffffffffffffffffffffffffffffffffffff9092168252519081900360200190f35b34801561012f57600080fd5b506100fa6102a0565b34801561014457600080fd5b506100ac6102bc565b34801561015957600080fd5b506100ac6102c2565b34801561016e57600080fd5b506100ac6102c8565b60035442101561018657600080fd5b60048054600254600154604080517fa9059cbb00000000000000000000000000000000000000000000000000000000815273ffffffffffffffffffffffffffffffffffffffff9384169581019590955260248501919091525191169163a9059cbb9160448083019260209291908290030181600087803b15801561020957600080fd5b505af115801561021d573d6000803e3d6000fd5b505050506040513d602081101561023357600080fd5b5050565b60035481565b6001929092556002805473ffffffffffffffffffffffffffffffffffffffff191673ffffffffffffffffffffffffffffffffffffffff929092169190911790554201600355565b60025473ffffffffffffffffffffffffffffffffffffffff1690565b60025473ffffffffffffffffffffffffffffffffffffffff1681565b60035490565b60015481565b600154905600a165627a7a7230582012a42c033b78ec14386bc92f406b1b5bdf2e0cd35278300fa0b669e5656f64c70029",
  "source": "pragma solidity ^0.4.24;\r\nimport \"./ENFToken.sol\";\r\n\r\n//This contract would be deployed after ENFToken would be deployed\r\ncontract Transaction{\r\n    address ENFadd;\r\n    uint public amount;\r\n    address public paidPerson;\r\n    uint public time;\r\n    ENFToken ENF;\r\n/**\r\n  * @dev Deploy contract after ENFToken is deployed, get ENFToken address\r\n  * @param _enf ENFToken address\r\n  */\r\n    constructor(address _enf) public\r\n    {\r\n        ENFadd = _enf;\r\n        ENF = ENFToken(ENFadd);\r\n\r\n        \r\n    }\r\n /**\r\n  * @dev Start Timed Contract and store tokens in contract\r\n  * @param _amount the amount of money that will be transfered in timed transaction\r\n  * @param _to the address the ENF will be transfered to \r\n  * @param _timeInSeconds the time when the money can be redeemed\r\n  */\r\n    function startExchange(uint _amount,address _to, uint _timeInSeconds) public payable{\r\n        amount = _amount;\r\n        paidPerson = _to;\r\n        time = now + _timeInSeconds * 1 seconds;\r\n    }\r\n/**\r\n  * @dev Called when the time is over and the transaction can be processed\r\n  */\r\n    function transferBy() public payable{\r\n        require(now >= time); //make sure funds are not paid before the time has elapsed\r\n        ENF.transfer(paidPerson,amount); //after time has elapsed web3.js will call this function \r\n    }\r\n    function getAmount() public view returns(uint) {\r\n        return amount;\r\n    }\r\n    function getAddress() public view returns(address){\r\n        return paidPerson;\r\n    }\r\n    function getTime() public view returns(uint){\r\n        return time;\r\n    }\r\n    function () external payable {\r\n    }\r\n    \r\n\r\n\r\n\r\n}",
  "sourcePath": "C:\\dev\\E-Fluencer\\ENFToken\\contracts\\Transaction.sol",
  "compiler": {
    "name": "solc",
    "version": "0.4.24+commit.e67f0147.Emscripten.clang"
  },
  "schemaVersion": "2.0.1",
  "updatedAt": "2018-08-10T14:52:44.040Z"
}