{
  "contractName": "Transaction",
  "abi": [
    {
      "constant": true,
      "inputs": [],
      "name": "name",
      "outputs": [
        {
          "name": "",
          "type": "string"
        }
      ],
      "payable": false,
      "stateMutability": "view",
      "type": "function"
    },
    {
      "constant": false,
      "inputs": [
        {
          "name": "_spender",
          "type": "address"
        },
        {
          "name": "_value",
          "type": "uint256"
        }
      ],
      "name": "approve",
      "outputs": [
        {
          "name": "",
          "type": "bool"
        }
      ],
      "payable": false,
      "stateMutability": "nonpayable",
      "type": "function"
    },
    {
      "constant": true,
      "inputs": [],
      "name": "totalSupply",
      "outputs": [
        {
          "name": "",
          "type": "uint256"
        }
      ],
      "payable": false,
      "stateMutability": "view",
      "type": "function"
    },
    {
      "constant": false,
      "inputs": [
        {
          "name": "_from",
          "type": "address"
        },
        {
          "name": "_to",
          "type": "address"
        },
        {
          "name": "_value",
          "type": "uint256"
        }
      ],
      "name": "transferFrom",
      "outputs": [
        {
          "name": "",
          "type": "bool"
        }
      ],
      "payable": false,
      "stateMutability": "nonpayable",
      "type": "function"
    },
    {
      "constant": true,
      "inputs": [],
      "name": "INITIAL_SUPPLY",
      "outputs": [
        {
          "name": "",
          "type": "uint256"
        }
      ],
      "payable": false,
      "stateMutability": "view",
      "type": "function"
    },
    {
      "constant": true,
      "inputs": [],
      "name": "decimals",
      "outputs": [
        {
          "name": "",
          "type": "uint8"
        }
      ],
      "payable": false,
      "stateMutability": "view",
      "type": "function"
    },
    {
      "constant": false,
      "inputs": [
        {
          "name": "_spender",
          "type": "address"
        },
        {
          "name": "_subtractedValue",
          "type": "uint256"
        }
      ],
      "name": "decreaseApproval",
      "outputs": [
        {
          "name": "",
          "type": "bool"
        }
      ],
      "payable": false,
      "stateMutability": "nonpayable",
      "type": "function"
    },
    {
      "constant": true,
      "inputs": [
        {
          "name": "_owner",
          "type": "address"
        }
      ],
      "name": "balanceOf",
      "outputs": [
        {
          "name": "",
          "type": "uint256"
        }
      ],
      "payable": false,
      "stateMutability": "view",
      "type": "function"
    },
    {
      "constant": true,
      "inputs": [],
      "name": "symbol",
      "outputs": [
        {
          "name": "",
          "type": "string"
        }
      ],
      "payable": false,
      "stateMutability": "view",
      "type": "function"
    },
    {
      "constant": false,
      "inputs": [
        {
          "name": "_to",
          "type": "address"
        },
        {
          "name": "_value",
          "type": "uint256"
        }
      ],
      "name": "transfer",
      "outputs": [
        {
          "name": "",
          "type": "bool"
        }
      ],
      "payable": false,
      "stateMutability": "nonpayable",
      "type": "function"
    },
    {
      "constant": false,
      "inputs": [
        {
          "name": "_spender",
          "type": "address"
        },
        {
          "name": "_addedValue",
          "type": "uint256"
        }
      ],
      "name": "increaseApproval",
      "outputs": [
        {
          "name": "",
          "type": "bool"
        }
      ],
      "payable": false,
      "stateMutability": "nonpayable",
      "type": "function"
    },
    {
      "constant": true,
      "inputs": [
        {
          "name": "_owner",
          "type": "address"
        },
        {
          "name": "_spender",
          "type": "address"
        }
      ],
      "name": "allowance",
      "outputs": [
        {
          "name": "",
          "type": "uint256"
        }
      ],
      "payable": false,
      "stateMutability": "view",
      "type": "function"
    },
    {
      "inputs": [
        {
          "name": "_enf",
          "type": "address"
        }
      ],
      "payable": false,
      "stateMutability": "nonpayable",
      "type": "constructor"
    },
    {
      "anonymous": false,
      "inputs": [
        {
          "indexed": true,
          "name": "owner",
          "type": "address"
        },
        {
          "indexed": true,
          "name": "spender",
          "type": "address"
        },
        {
          "indexed": false,
          "name": "value",
          "type": "uint256"
        }
      ],
      "name": "Approval",
      "type": "event"
    },
    {
      "anonymous": false,
      "inputs": [
        {
          "indexed": true,
          "name": "from",
          "type": "address"
        },
        {
          "indexed": true,
          "name": "to",
          "type": "address"
        },
        {
          "indexed": false,
          "name": "value",
          "type": "uint256"
        }
      ],
      "name": "Transfer",
      "type": "event"
    },
    {
      "constant": false,
      "inputs": [
        {
          "name": "_amount",
          "type": "uint256"
        },
        {
          "name": "_to",
          "type": "address"
        },
        {
          "name": "_timeInSeconds",
          "type": "uint256"
        }
      ],
      "name": "startExchange",
      "outputs": [],
      "payable": false,
      "stateMutability": "nonpayable",
      "type": "function"
    },
    {
      "constant": false,
      "inputs": [],
      "name": "transferBy",
      "outputs": [],
      "payable": false,
      "stateMutability": "nonpayable",
      "type": "function"
    }
  ],
  "bytecode": "0x60c0604052600860808190527f454e46546f6b656e00000000000000000000000000000000000000000000000060a090815261003e9160039190610107565b506040805180820190915260038082527f454e460000000000000000000000000000000000000000000000000000000000602090920191825261008391600491610107565b506005805460ff19166008179055631dcd65006006553480156100a557600080fd5b50604051602080610ba8833981016040908152905160065460018190553360009081526020819052929092209190915560078054600160a060020a0319908116600160a060020a039384161791829055600b80549290931691161790556101a2565b828054600181600116156101000203166002900490600052602060002090601f016020900481019282601f1061014857805160ff1916838001178555610175565b82800160010185558215610175579182015b8281111561017557825182559160200191906001019061015a565b50610181929150610185565b5090565b61019f91905b80821115610181576000815560010161018b565b90565b6109f7806101b16000396000f3006080604052600436106100cf5763ffffffff7c010000000000000000000000000000000000000000000000000000000060003504166306fdde0381146100d4578063095ea7b31461015e5780630be6d28f1461019657806318160ddd146101ad57806323b872dd146101d45780632ff2e9dc146101fe578063313ce5671461021357806334ffed261461023e578063661884631461026557806370a082311461028957806395d89b41146102aa578063a9059cbb146102bf578063d73dd623146102e3578063dd62ed3e14610307575b600080fd5b3480156100e057600080fd5b506100e961032e565b6040805160208082528351818301528351919283929083019185019080838360005b8381101561012357818101518382015260200161010b565b50505050905090810190601f1680156101505780820380516001836020036101000a031916815260200191505b509250505060405180910390f35b34801561016a57600080fd5b50610182600160a060020a03600435166024356103bc565b604080519115158252519081900360200190f35b3480156101a257600080fd5b506101ab610422565b005b3480156101b957600080fd5b506101c26104da565b60408051918252519081900360200190f35b3480156101e057600080fd5b50610182600160a060020a03600435811690602435166044356104e0565b34801561020a57600080fd5b506101c2610655565b34801561021f57600080fd5b5061022861065b565b6040805160ff9092168252519081900360200190f35b34801561024a57600080fd5b506101ab600435600160a060020a0360243516604435610664565b34801561027157600080fd5b50610182600160a060020a036004351660243561069e565b34801561029557600080fd5b506101c2600160a060020a036004351661078d565b3480156102b657600080fd5b506100e96107a8565b3480156102cb57600080fd5b50610182600160a060020a0360043516602435610803565b3480156102ef57600080fd5b50610182600160a060020a03600435166024356108e2565b34801561031357600080fd5b506101c2600160a060020a036004358116906024351661097b565b6003805460408051602060026001851615610100026000190190941693909304601f810184900484028201840190925281815292918301828280156103b45780601f10610389576101008083540402835291602001916103b4565b820191906000526020600020905b81548152906001019060200180831161039757829003601f168201915b505050505081565b336000818152600260209081526040808320600160a060020a038716808552908352818420869055815186815291519394909390927f8c5be1e5ebec7d5bd14f71427d1e84f3dd0314c0f7b2291e5b200ac8c7c3b925928290030190a350600192915050565b600a5442101561043157600080fd5b600b54600954600854604080517f23b872dd000000000000000000000000000000000000000000000000000000008152336004820152600160a060020a03938416602482015260448101929092525191909216916323b872dd9160648083019260209291908290030181600087803b1580156104ac57600080fd5b505af11580156104c0573d6000803e3d6000fd5b505050506040513d60208110156104d657600080fd5b5050565b60015490565b600160a060020a03831660009081526020819052604081205482111561050557600080fd5b600160a060020a038416600090815260026020908152604080832033845290915290205482111561053557600080fd5b600160a060020a038316151561054a57600080fd5b600160a060020a038416600090815260208190526040902054610573908363ffffffff6109a616565b600160a060020a0380861660009081526020819052604080822093909355908516815220546105a8908363ffffffff6109b816565b600160a060020a038085166000908152602081815260408083209490945591871681526002825282812033825290915220546105ea908363ffffffff6109a616565b600160a060020a03808616600081815260026020908152604080832033845282529182902094909455805186815290519287169391927fddf252ad1be2c89b69c2b068fc378daa952ba7f163c4a11628f55a4df523b3ef929181900390910190a35060019392505050565b60065481565b60055460ff1681565b6008929092556009805473ffffffffffffffffffffffffffffffffffffffff1916600160a060020a03929092169190911790554201600a55565b336000908152600260209081526040808320600160a060020a03861684529091528120548083106106f257336000908152600260209081526040808320600160a060020a0388168452909152812055610727565b610702818463ffffffff6109a616565b336000908152600260209081526040808320600160a060020a03891684529091529020555b336000818152600260209081526040808320600160a060020a0389168085529083529281902054815190815290519293927f8c5be1e5ebec7d5bd14f71427d1e84f3dd0314c0f7b2291e5b200ac8c7c3b925929181900390910190a35060019392505050565b600160a060020a031660009081526020819052604090205490565b6004805460408051602060026001851615610100026000190190941693909304601f810184900484028201840190925281815292918301828280156103b45780601f10610389576101008083540402835291602001916103b4565b3360009081526020819052604081205482111561081f57600080fd5b600160a060020a038316151561083457600080fd5b33600090815260208190526040902054610854908363ffffffff6109a616565b3360009081526020819052604080822092909255600160a060020a03851681522054610886908363ffffffff6109b816565b600160a060020a038416600081815260208181526040918290209390935580518581529051919233927fddf252ad1be2c89b69c2b068fc378daa952ba7f163c4a11628f55a4df523b3ef9281900390910190a350600192915050565b336000908152600260209081526040808320600160a060020a0386168452909152812054610916908363ffffffff6109b816565b336000818152600260209081526040808320600160a060020a0389168085529083529281902085905580519485525191937f8c5be1e5ebec7d5bd14f71427d1e84f3dd0314c0f7b2291e5b200ac8c7c3b925929081900390910190a350600192915050565b600160a060020a03918216600090815260026020908152604080832093909416825291909152205490565b6000828211156109b257fe5b50900390565b818101828110156109c557fe5b929150505600a165627a7a72305820abfc6c75f229ffeec9abe8378712309659d4536d9b7226a2300058de539453b50029",
  "source": "pragma solidity ^0.4.24;\r\nimport \"./ENFToken.sol\";\r\n\r\n//This contract would be deployed after ENFToken would be deployed\r\ncontract Transaction is ENFToken{\r\n    address ENFadd;\r\n    uint amount;\r\n    address paidPerson;\r\n    uint time;\r\n    ENFToken ENF;\r\n   \r\n    constructor(address _enf) public\r\n    {\r\n        ENFadd = _enf;\r\n        ENF = ENFToken(ENFadd);\r\n\r\n        \r\n    }\r\n    function startExchange(uint _amount,address _to, uint _timeInSeconds) public{\r\n        amount = _amount;\r\n        paidPerson = _to;\r\n        time = now + _timeInSeconds * 1 seconds;\r\n    }\r\n    \r\n    function transferBy() public{\r\n        require(now >= time); //make sure funds are not paid before the time has elapsed\r\n        ENF.transferFrom(msg.sender,paidPerson,amount); //after time has elapsed web3.js will call this function \r\n    }\r\n    \r\n\r\n\r\n\r\n}",
  "sourcePath": "C:\\dev\\E-Fluencer\\ENFToken\\contracts\\Transaction.sol",
  "compiler": {
    "name": "solc",
    "version": "0.4.24+commit.e67f0147.Emscripten.clang"
  },
  "schemaVersion": "2.0.1",
  "updatedAt": "2018-08-07T14:50:33.860Z"
}