{
  "contractName": "Transaction",
  "abi": [
    {
      "inputs": [
        {
          "name": "_enf",
          "type": "address"
        }
      ],
      "payable": false,
      "stateMutability": "nonpayable",
      "type": "constructor"
    },
    {
      "payable": true,
      "stateMutability": "payable",
      "type": "fallback"
    },
    {
      "constant": false,
      "inputs": [
        {
          "name": "_amount",
          "type": "uint256"
        },
        {
          "name": "_to",
          "type": "address"
        },
        {
          "name": "_timeInSeconds",
          "type": "uint256"
        }
      ],
      "name": "startExchange",
      "outputs": [],
      "payable": false,
      "stateMutability": "nonpayable",
      "type": "function"
    },
    {
      "constant": false,
      "inputs": [],
      "name": "transferBy",
      "outputs": [],
      "payable": false,
      "stateMutability": "nonpayable",
      "type": "function"
    }
  ],
  "bytecode": "0x608060405234801561001057600080fd5b5060405160208061022e833981016040525160008054600160a060020a03928316600160a060020a0319918216179182905560048054909116919092161790556101cf8061005f6000396000f30060806040526004361061004b5763ffffffff7c01000000000000000000000000000000000000000000000000000000006000350416630be6d28f811461004d57806334ffed2614610062575b005b34801561005957600080fd5b5061004b610096565b34801561006e57600080fd5b5061004b60043573ffffffffffffffffffffffffffffffffffffffff6024351660443561015c565b6003544210156100a557600080fd5b60048054600254600154604080517f23b872dd000000000000000000000000000000000000000000000000000000008152339581019590955273ffffffffffffffffffffffffffffffffffffffff92831660248601526044850191909152519116916323b872dd9160648083019260209291908290030181600087803b15801561012e57600080fd5b505af1158015610142573d6000803e3d6000fd5b505050506040513d602081101561015857600080fd5b5050565b6001929092556002805473ffffffffffffffffffffffffffffffffffffffff191673ffffffffffffffffffffffffffffffffffffffff9290921691909117905542016003555600a165627a7a723058205079f555c44714bcb384b26969b1024ecf0d17c6a88981fbf64516ab5b899df70029",
  "source": "pragma solidity ^0.4.24;\r\nimport \"./ENFToken.sol\";\r\n\r\n//This contract would be deployed after ENFToken would be deployed\r\ncontract Transaction{\r\n    address ENFadd;\r\n    uint amount;\r\n    address paidPerson;\r\n    uint time;\r\n    ENFToken ENF;\r\n   \r\n    constructor(address _enf) public\r\n    {\r\n        ENFadd = _enf;\r\n        ENF = ENFToken(ENFadd);\r\n\r\n        \r\n    }\r\n    function startExchange(uint _amount,address _to, uint _timeInSeconds) public{\r\n        amount = _amount;\r\n        paidPerson = _to;\r\n        time = now + _timeInSeconds * 1 seconds;\r\n    }\r\n    \r\n    function transferBy() public{\r\n        require(now >= time); //make sure funds are not paid before the time has elapsed\r\n        ENF.transferFrom(msg.sender,paidPerson,amount); //after time has elapsed web3.js will call this function \r\n    }\r\n    function () external payable {\r\n    }\r\n    \r\n\r\n\r\n\r\n}",
  "sourcePath": "C:\\dev\\E-Fluencer\\ENFToken\\contracts\\Transaction.sol",
  "compiler": {
    "name": "solc",
    "version": "0.4.24+commit.e67f0147.Emscripten.clang"
  },
  "schemaVersion": "2.0.1",
  "updatedAt": "2018-08-08T16:14:44.224Z"
}