{
  "contractName": "Transaction",
  "abi": [
    {
      "constant": true,
      "inputs": [],
      "name": "time",
      "outputs": [
        {
          "name": "",
          "type": "uint256"
        }
      ],
      "payable": false,
      "stateMutability": "view",
      "type": "function"
    },
    {
      "constant": true,
      "inputs": [],
      "name": "paidPerson",
      "outputs": [
        {
          "name": "",
          "type": "address"
        }
      ],
      "payable": false,
      "stateMutability": "view",
      "type": "function"
    },
    {
      "constant": true,
      "inputs": [],
      "name": "amount",
      "outputs": [
        {
          "name": "",
          "type": "uint256"
        }
      ],
      "payable": false,
      "stateMutability": "view",
      "type": "function"
    },
    {
      "inputs": [
        {
          "name": "_enf",
          "type": "address"
        }
      ],
      "payable": false,
      "stateMutability": "nonpayable",
      "type": "constructor"
    },
    {
      "payable": true,
      "stateMutability": "payable",
      "type": "fallback"
    },
    {
      "constant": false,
      "inputs": [
        {
          "name": "_amount",
          "type": "uint256"
        },
        {
          "name": "_to",
          "type": "address"
        },
        {
          "name": "_timeInSeconds",
          "type": "uint256"
        }
      ],
      "name": "startExchange",
      "outputs": [],
      "payable": true,
      "stateMutability": "payable",
      "type": "function"
    },
    {
      "constant": false,
      "inputs": [],
      "name": "transferBy",
      "outputs": [],
      "payable": true,
      "stateMutability": "payable",
      "type": "function"
    },
    {
      "constant": true,
      "inputs": [],
      "name": "getAmount",
      "outputs": [
        {
          "name": "",
          "type": "uint256"
        }
      ],
      "payable": false,
      "stateMutability": "view",
      "type": "function"
    },
    {
      "constant": true,
      "inputs": [],
      "name": "getAddress",
      "outputs": [
        {
          "name": "",
          "type": "address"
        }
      ],
      "payable": false,
      "stateMutability": "view",
      "type": "function"
    },
    {
      "constant": true,
      "inputs": [],
      "name": "getTime",
      "outputs": [
        {
          "name": "",
          "type": "uint256"
        }
      ],
      "payable": false,
      "stateMutability": "view",
      "type": "function"
    }
  ],
  "bytecode": "0x608060405234801561001057600080fd5b5060405160208061055083398101806040528101908080519060200190929190505050806000806101000a81548173ffffffffffffffffffffffffffffffffffffffff021916908373ffffffffffffffffffffffffffffffffffffffff1602179055506000809054906101000a900473ffffffffffffffffffffffffffffffffffffffff16600460006101000a81548173ffffffffffffffffffffffffffffffffffffffff021916908373ffffffffffffffffffffffffffffffffffffffff1602179055505061046b806100e56000396000f30060806040526004361061008e576000357c0100000000000000000000000000000000000000000000000000000000900463ffffffff1680630be6d28f1461009057806316ada5471461009a57806334ffed26146100c557806338cc48311461010f5780633945c63614610166578063557ed1ba146101bd578063aa8c217c146101e8578063d321fe2914610213575b005b61009861023e565b005b3480156100a657600080fd5b506100af610376565b6040518082815260200191505060405180910390f35b61010d60048036038101908080359060200190929190803573ffffffffffffffffffffffffffffffffffffffff1690602001909291908035906020019092919050505061037c565b005b34801561011b57600080fd5b506101246103d5565b604051808273ffffffffffffffffffffffffffffffffffffffff1673ffffffffffffffffffffffffffffffffffffffff16815260200191505060405180910390f35b34801561017257600080fd5b5061017b6103ff565b604051808273ffffffffffffffffffffffffffffffffffffffff1673ffffffffffffffffffffffffffffffffffffffff16815260200191505060405180910390f35b3480156101c957600080fd5b506101d2610425565b6040518082815260200191505060405180910390f35b3480156101f457600080fd5b506101fd61042f565b6040518082815260200191505060405180910390f35b34801561021f57600080fd5b50610228610435565b6040518082815260200191505060405180910390f35b600354421015151561024f57600080fd5b600460009054906101000a900473ffffffffffffffffffffffffffffffffffffffff1673ffffffffffffffffffffffffffffffffffffffff1663a9059cbb600260009054906101000a900473ffffffffffffffffffffffffffffffffffffffff166001546040518363ffffffff167c0100000000000000000000000000000000000000000000000000000000028152600401808373ffffffffffffffffffffffffffffffffffffffff1673ffffffffffffffffffffffffffffffffffffffff16815260200182815260200192505050602060405180830381600087803b15801561033857600080fd5b505af115801561034c573d6000803e3d6000fd5b505050506040513d602081101561036257600080fd5b810190808051906020019092919050505050565b60035481565b8260018190555081600260006101000a81548173ffffffffffffffffffffffffffffffffffffffff021916908373ffffffffffffffffffffffffffffffffffffffff160217905550600181024201600381905550505050565b6000600260009054906101000a900473ffffffffffffffffffffffffffffffffffffffff16905090565b600260009054906101000a900473ffffffffffffffffffffffffffffffffffffffff1681565b6000600354905090565b60015481565b60006001549050905600a165627a7a7230582074e37c6ec32b302ad146fbeb266d53b6c1c563e031c9cb5a1fbdf2e0fe72834d0029",
  "source": "pragma solidity ^0.4.24;\r\nimport \"./ENFToken.sol\";\r\n\r\n//This contract would be deployed after ENFToken would be deployed\r\ncontract Transaction{\r\n    address ENFadd;\r\n    uint public amount;\r\n    address public paidPerson;\r\n    uint public time;\r\n    ENFToken ENF;\r\n/**\r\n  * @dev Deploy contract after ENFToken is deployed, get ENFToken address\r\n  * @param _enf ENFToken address\r\n  */\r\n    constructor(address _enf) public\r\n    {\r\n        ENFadd = _enf;\r\n        ENF = ENFToken(ENFadd);\r\n\r\n        \r\n    }\r\n /**\r\n  * @dev Start Timed Contract and store tokens in contract\r\n  * @param _amount the amount of money that will be transfered in timed transaction\r\n  * @param _to the address the ENF will be transfered to \r\n  * @param _timeInSeconds the time when the money can be redeemed\r\n  */\r\n    function startExchange(uint _amount,address _to, uint _timeInSeconds) public payable{\r\n        amount = _amount;\r\n        paidPerson = _to;\r\n        time = now + _timeInSeconds * 1 seconds;\r\n    }\r\n/**\r\n  * @dev Called when the time is over and the transaction can be processed\r\n  */\r\n    function transferBy() public payable{\r\n        require(now >= time); //make sure funds are not paid before the time has elapsed\r\n        ENF.transfer(paidPerson,amount); //after time has elapsed web3.js will call this function \r\n    }\r\n    function getAmount() public view returns(uint) {\r\n        return amount;\r\n    }\r\n    function getAddress() public view returns(address){\r\n        return paidPerson;\r\n    }\r\n    function getTime() public view returns(uint){\r\n        return time;\r\n    }\r\n    function () external payable {\r\n    }\r\n    \r\n\r\n\r\n\r\n}",
  "sourcePath": "C:\\dev\\E-Fluencer\\ENFToken\\contracts\\Transaction.sol",
  "compiler": {
    "name": "solc",
    "version": "0.4.24+commit.e67f0147.Emscripten.clang"
  },
  "schemaVersion": "2.0.1",
  "updatedAt": "2018-08-14T15:33:53.991Z"
}