{
  "contractName": "Transaction",
  "abi": [
    {
      "constant": true,
      "inputs": [],
      "name": "time",
      "outputs": [
        {
          "name": "",
          "type": "uint256"
        }
      ],
      "payable": false,
      "stateMutability": "view",
      "type": "function"
    },
    {
      "constant": true,
      "inputs": [],
      "name": "paidPerson",
      "outputs": [
        {
          "name": "",
          "type": "address"
        }
      ],
      "payable": false,
      "stateMutability": "view",
      "type": "function"
    },
    {
      "constant": true,
      "inputs": [],
      "name": "amount",
      "outputs": [
        {
          "name": "",
          "type": "uint256"
        }
      ],
      "payable": false,
      "stateMutability": "view",
      "type": "function"
    },
    {
      "inputs": [
        {
          "name": "_enf",
          "type": "address"
        }
      ],
      "payable": false,
      "stateMutability": "nonpayable",
      "type": "constructor"
    },
    {
      "payable": true,
      "stateMutability": "payable",
      "type": "fallback"
    },
    {
      "constant": false,
      "inputs": [
        {
          "name": "_amount",
          "type": "uint256"
        },
        {
          "name": "_to",
          "type": "address"
        },
        {
          "name": "_timeInSeconds",
          "type": "uint256"
        }
      ],
      "name": "startExchange",
      "outputs": [],
      "payable": true,
      "stateMutability": "payable",
      "type": "function"
    },
    {
      "constant": false,
      "inputs": [],
      "name": "transferBy",
      "outputs": [],
      "payable": true,
      "stateMutability": "payable",
      "type": "function"
    },
    {
      "constant": true,
      "inputs": [],
      "name": "getAmount",
      "outputs": [
        {
          "name": "",
          "type": "uint256"
        }
      ],
      "payable": false,
      "stateMutability": "view",
      "type": "function"
    },
    {
      "constant": true,
      "inputs": [],
      "name": "getAddress",
      "outputs": [
        {
          "name": "",
          "type": "address"
        }
      ],
      "payable": false,
      "stateMutability": "view",
      "type": "function"
    },
    {
      "constant": true,
      "inputs": [],
      "name": "getTime",
      "outputs": [
        {
          "name": "",
          "type": "uint256"
        }
      ],
      "payable": false,
      "stateMutability": "view",
      "type": "function"
    },
    {
      "constant": false,
      "inputs": [],
      "name": "setDispute",
      "outputs": [],
      "payable": false,
      "stateMutability": "nonpayable",
      "type": "function"
    },
    {
      "constant": false,
      "inputs": [
        {
          "name": "disputers",
          "type": "address[]"
        },
        {
          "name": "DisputeWinnerIsOwner",
          "type": "bool"
        },
        {
          "name": "amount_disputers",
          "type": "uint256"
        }
      ],
      "name": "resolve",
      "outputs": [],
      "payable": false,
      "stateMutability": "nonpayable",
      "type": "function"
    }
  ],
  "bytecode": "0x60806040526000600460146101000a81548160ff02191690831515021790555034801561002b57600080fd5b50604051602080610aa783398101806040528101908080519060200190929190505050806000806101000a81548173ffffffffffffffffffffffffffffffffffffffff021916908373ffffffffffffffffffffffffffffffffffffffff1602179055506000809054906101000a900473ffffffffffffffffffffffffffffffffffffffff16600460006101000a81548173ffffffffffffffffffffffffffffffffffffffff021916908373ffffffffffffffffffffffffffffffffffffffff16021790555033600560006101000a81548173ffffffffffffffffffffffffffffffffffffffff021916908373ffffffffffffffffffffffffffffffffffffffff16021790555050610966806101416000396000f3006080604052600436106100a4576000357c0100000000000000000000000000000000000000000000000000000000900463ffffffff1680630be6d28f146100a657806316ada547146100b057806334ffed26146100db57806338cc4831146101255780633945c6361461017c578063557ed1ba146101d3578063821122c4146101fe578063aa8c217c1461027a578063d321fe29146102a5578063d8bc7bee146102d0575b005b6100ae6102e7565b005b3480156100bc57600080fd5b506100c5610444565b6040518082815260200191505060405180910390f35b61012360048036038101908080359060200190929190803573ffffffffffffffffffffffffffffffffffffffff1690602001909291908035906020019092919050505061044a565b005b34801561013157600080fd5b5061013a6104a3565b604051808273ffffffffffffffffffffffffffffffffffffffff1673ffffffffffffffffffffffffffffffffffffffff16815260200191505060405180910390f35b34801561018857600080fd5b506101916104cd565b604051808273ffffffffffffffffffffffffffffffffffffffff1673ffffffffffffffffffffffffffffffffffffffff16815260200191505060405180910390f35b3480156101df57600080fd5b506101e86104f3565b6040518082815260200191505060405180910390f35b34801561020a57600080fd5b5061027860048036038101908080359060200190820180359060200190808060200260200160405190810160405280939291908181526020018383602002808284378201915050505050509192919290803515159060200190929190803590602001909291905050506104fd565b005b34801561028657600080fd5b5061028f6108a0565b6040518082815260200191505060405180910390f35b3480156102b157600080fd5b506102ba6108a6565b6040518082815260200191505060405180910390f35b3480156102dc57600080fd5b506102e56108b0565b005b60035442101515156102f857600080fd5b6000600460146101000a81548160ff0219169083151502179055151561031d57600080fd5b600460009054906101000a900473ffffffffffffffffffffffffffffffffffffffff1673ffffffffffffffffffffffffffffffffffffffff1663a9059cbb600260009054906101000a900473ffffffffffffffffffffffffffffffffffffffff166001546040518363ffffffff167c0100000000000000000000000000000000000000000000000000000000028152600401808373ffffffffffffffffffffffffffffffffffffffff1673ffffffffffffffffffffffffffffffffffffffff16815260200182815260200192505050602060405180830381600087803b15801561040657600080fd5b505af115801561041a573d6000803e3d6000fd5b505050506040513d602081101561043057600080fd5b810190808051906020019092919050505050565b60035481565b8260018190555081600260006101000a81548173ffffffffffffffffffffffffffffffffffffffff021916908373ffffffffffffffffffffffffffffffffffffffff160217905550600181024201600381905550505050565b6000600260009054906101000a900473ffffffffffffffffffffffffffffffffffffffff16905090565b600260009054906101000a900473ffffffffffffffffffffffffffffffffffffffff1681565b6000600354905090565b60008160015403600181905550600090505b835181101561063d57600460009054906101000a900473ffffffffffffffffffffffffffffffffffffffff1673ffffffffffffffffffffffffffffffffffffffff1663a9059cbb858381518110151561056457fe5b90602001906020020151846040518363ffffffff167c0100000000000000000000000000000000000000000000000000000000028152600401808373ffffffffffffffffffffffffffffffffffffffff1673ffffffffffffffffffffffffffffffffffffffff16815260200182815260200192505050602060405180830381600087803b1580156105f457600080fd5b505af1158015610608573d6000803e3d6000fd5b505050506040513d602081101561061e57600080fd5b810190808051906020019092919050505050808060010191505061050f565b60011515831515141561077457600460009054906101000a900473ffffffffffffffffffffffffffffffffffffffff1673ffffffffffffffffffffffffffffffffffffffff1663a9059cbb600560009054906101000a900473ffffffffffffffffffffffffffffffffffffffff166001546040518363ffffffff167c0100000000000000000000000000000000000000000000000000000000028152600401808373ffffffffffffffffffffffffffffffffffffffff1673ffffffffffffffffffffffffffffffffffffffff16815260200182815260200192505050602060405180830381600087803b15801561073357600080fd5b505af1158015610747573d6000803e3d6000fd5b505050506040513d602081101561075d57600080fd5b81019080805190602001909291905050505061089a565b600460009054906101000a900473ffffffffffffffffffffffffffffffffffffffff1673ffffffffffffffffffffffffffffffffffffffff1663a9059cbb600260009054906101000a900473ffffffffffffffffffffffffffffffffffffffff166001546040518363ffffffff167c0100000000000000000000000000000000000000000000000000000000028152600401808373ffffffffffffffffffffffffffffffffffffffff1673ffffffffffffffffffffffffffffffffffffffff16815260200182815260200192505050602060405180830381600087803b15801561085d57600080fd5b505af1158015610871573d6000803e3d6000fd5b505050506040513d602081101561088757600080fd5b8101908080519060200190929190505050505b50505050565b60015481565b6000600154905090565b600560009054906101000a900473ffffffffffffffffffffffffffffffffffffffff1673ffffffffffffffffffffffffffffffffffffffff163373ffffffffffffffffffffffffffffffffffffffff1614151561090c57600080fd5b600354421115151561091d57600080fd5b6001600460146101000a81548160ff0219169083151502179055505600a165627a7a7230582020d91b5a98a861196ae4ae41216c69d224263a7767050a64abb5eade27974da80029",
  "source": "pragma solidity ^0.4.24;\r\nimport \"./ENFToken.sol\";\r\n\r\n//This contract would be deployed after ENFToken would be deployed\r\ncontract Transaction{\r\n    address ENFadd;\r\n    uint public amount;\r\n    address public paidPerson;\r\n    uint public time;\r\n    ENFToken ENF;\r\n    bool inDispute=false;\r\n    address owner;\r\n/**\r\n  * @dev Deploy contract after ENFToken is deployed, get ENFToken address\r\n  * @param _enf ENFToken address (used in migrations)\r\n  */\r\n    constructor(address _enf) public\r\n    {\r\n        ENFadd = _enf;\r\n        ENF = ENFToken(ENFadd);\r\n        owner = msg.sender;\r\n\r\n        \r\n    }\r\n /**\r\n  * @dev Start Timed Contract and store tokens in contract\r\n  * @param _amount the amount of money that will be transfered in timed transaction\r\n  * @param _to the address the ENF will be transfered to \r\n  * @param _timeInSeconds the time when the money can be redeemed\r\n  */\r\n    function startExchange(uint _amount,address _to, uint _timeInSeconds) public payable{\r\n        //require(msg.value = amount); \r\n        amount = _amount;\r\n        paidPerson = _to;\r\n        time = now + _timeInSeconds * 1 seconds;\r\n    }\r\n/**\r\n  * @dev Called when the time is over and the transaction can be processed\r\n  */\r\n    function transferBy() public payable{\r\n        require(now >= time); //make sure funds are not paid before the time has elapsed\r\n        require(inDispute = false); //prevents web3 from calling when the transaction is in dispute\r\n        ENF.transfer(paidPerson,amount); //after time has elapsed web3.js will call this function \r\n    }\r\n    function getAmount() public view returns(uint) {\r\n        return amount;\r\n    }\r\n    function getAddress() public view returns(address){\r\n        return paidPerson;\r\n    }\r\n    function getTime() public view returns(uint){\r\n        return time;\r\n    }\r\n    /**\r\n  * @dev Called by interface when Owner wants to dispute contract\r\n  */\r\n    function setDispute() public{\r\n        require(msg.sender==owner); //only owner can call this function\r\n        require(now <= time); //owner can only call function before time is done\r\n        inDispute = true;\r\n\r\n    }\r\n    /**\r\n  * @dev Called after the disputers decide who won the dispute\r\n  * @param disputers the majority voters of the dispute\r\n  * @param DisputeWinnerIsOwner the winner of the dispute as decided by the disputers. \r\n  * True if the owner (brand) is the winner, false if the influencer is the winner\r\n  */\r\n\r\n    function resolve(address[] disputers,bool DisputeWinnerIsOwner,uint amount_disputers) public{\r\n        //called by web3 after voters dispute the transaction\r\n       \r\n        //give 10% of the amount to the disputers\r\n        amount = amount - amount_disputers;\r\n        for(uint i = 0;i < disputers.length; i++ ){\r\n            ENF.transfer(disputers[i],amount_disputers);\r\n\r\n        }\r\n        if(DisputeWinnerIsOwner == true) \r\n        {\r\n            ENF.transfer(owner,amount);\r\n        }\r\n        else{\r\n            ENF.transfer(paidPerson,amount);\r\n        }\r\n        \r\n\r\n    }\r\n\r\n    function () external payable {\r\n    }\r\n    \r\n\r\n\r\n\r\n}",
  "sourcePath": "C:\\dev\\E-Fluencer\\ENFToken\\contracts\\Transaction.sol",
  "compiler": {
    "name": "solc",
    "version": "0.4.24+commit.e67f0147.Emscripten.clang"
  },
  "schemaVersion": "2.0.1",
  "updatedAt": "2018-08-15T16:47:15.961Z"
}